:0200000407FCF7
:10000000E087FC07B500FC07BD00FC07D500FC0736
:1000100000000000000000000000000000000000E0
:10002000000000000000000000000000ED00FC07E0
:100030000000000000000000EF00FC07F100FC07DA
:10004000F300FC07F300FC075108FC073909FC0723
:10005000F300FC07F300FC07F300FC07F300FC07C8
:10006000F300FC07F300FC07C107FC07CB07FC0704
:10007000D507FC07DF07FC07E907FC07F300FC07CF
:10008000F300FC07F300FC07F300FC07F300FC0798
:10009000F300FC07F300FC07F300FC07F300FC0788
:1000A0000348854601F09CF9004800470D13FC0702
:1000B000E087FC070F4880470F480047042071463F
:1000C000084203D0EFF309800C490847EFF308809A
:1000D0000A49084704207146084203D0EFF309801B
:1000E00007490847EFF3088005490847FEE7FEE7A0
:1000F000FEE7FEE77514FC07A100FC070701FC07FB
:100100000501FC07FEE7FEE77047C04670B50446F0
:1001100010480480104D688B0126B04368830D2081
:1001200001F03CF928883043022188432880288840
:100130004006FCD52846083804807D20C00001F028
:100140002DF9288803218843288028880006FCD5BB
:1001500070BDC0461080FC070A0000500B480188A3
:1001600080220A434021C9430A400280428BFF2378
:100170009A434283428C04231343182293434384BB
:10018000428CA02313430B40438470471600005059
:1001900006480188064A0A400721C9025118018011
:1001A0000448018808220A43028070472003005057
:1001B000FFC3000052000050FEB54C4808270780DE
:1001C00000F08EF94A4D288802AC20802088C04675
:1001D000C046208804210191C943084202D0002072
:1001E000288003E0A88901218843A881FFF7D0FF78
:1001F0008E48C18D06229143C18501218B03AE8BB0
:100200001E43AE8303883B4E1E4006804388134343
:10021000BB43438005221607738D374CFF34C28DD4
:100220002240DB051AD40F231B030324640222435C
:10023000C285C28D1A43C285AA8BBA43AA83AA8BF0
:1002400004239A43AA834288644B13404380C28D9F
:100250000A43C285718D4907FCD516E08B021A430B
:10026000C285C28D254B1340CA039A18C285AA8B3A
:100270003A43AA83AA8B019B9A43AA83C28D8A43DD
:10028000C285A98B40229143A983A98B03220A43EB
:10029000AA830188202211434023DB4319400180B7
:1002A000288C104318402884FFF758FF00F03AFDCF
:1002B000022000F085FD12480068C1B20C20AA2976
:1002C000014600D001993288824388183080C046A8
:1002D000C04600F08DFE66200A49085AFFF716FF57
:1002E00000F044FE01F034F8FEBDC046003300507B
:1002F00004030050FFBF000000F0FFFFFF0F0000ED
:10030000D07FF8076C80FC070520000701883022A9
:100310000A430280018803220A43028070470520B5
:100320000007018830229143018001880322914314
:100330000180704703490A88034B134000021843A9
:100340000880704738300050FFFC000006490A88DA
:10035000064B13400B8006490A8808239A43C007BE
:10036000000F10180880704752000050FFEF000087
:100370002003005006490A88064B13400B800649AB
:100380000A8804239A43C007400F1018088070475A
:1003900052000050FFFD0000200300500448018877
:1003A000890918220A4000888004400F801870478D
:1003B0005400005008490A88084B1340F8220240B4
:1003C00092011A430A800A88054B13404007800CAB
:1003D000181808807047C04654000050FFF900000C
:1003E000FFC7000010B5114C204628380088C00512
:1003F0000CD42088402101432020814321800D48D6
:100400000188012291430180002004E000F07EFC7D
:10041000002802D0FF2040B210BD2088C004EED4D6
:10042000034800880007EAD4FC20F4E7520000509B
:100430002003005080000050B0B50446124D2888BB
:10044000C00501D4FE201DE000F060FC002805D0AE
:10045000FFF7A4FF844201D2FF2013E0288DC004DF
:1004600008D40A480088072C04D80821084001D184
:10047000FB2007E00648012141700470204600F08F
:1004800009F8002040B2B0BD2A00005020030050FF
:10049000D880FC0780B5FFF78DFF05480188012251
:1004A0000A430280034801884907FCD580BDC04645
:1004B000800000502A00005010B5084C2188C90562
:1004C00009D4FFF7E7FF208D20210143402081431D
:1004D0002185002000E0FD2040B210BD2A00005020
:1004E0007047C0461A434900400140180149425232
:1004F0007047C0460630005049004001401802498C
:10050000415A1F20084070470630005070B5084C13
:10051000049D002D254600D1A51C01268E404001DA
:1005200046531A43490040180019828070BDC046E6
:100530000230005001228A40400101494252704776
:100540000230005001228A40400101494252704766
:10055000043000508A400120884003490B888343BF
:1005600013430B807047C0461E3000504001034AC1
:10057000825ACA40012010407047C04600300050E7
:100580000C2901D3002200E00122414241411140E7
:1005900008467047F0B585B00293039204910B9F13
:1005A000781E3D4685410A3A019240269640B0B2F7
:1005B0002A490C882A4988478540B4432C43274E52
:1005C000348034883F208443254DA8478740274303
:1005D00037802020019FB840B488844380B2A84768
:1005E0000A9981402143B18001200090B840B4882D
:1005F000844380B2A8472A46029981402143B180B2
:10060000780084190C3C25880F2085439047049975
:10061000491C814029432180039C002C05D40320E0
:10062000214681431048081803E00C2020400D4962
:100630004018A107C90E80228A40FF238B40016821
:10064000994311430160002C05D41F2004400099F8
:10065000A1400648016005B0F0BDC0460C14005032
:100660007106FC0714ED00E000E400E000E100E0AA
:1006700000280AD006494218521C424000200A4273
:1006800004D0401C520892B2F9E7102080B27047A3
:10069000FEFF01000A38012319468140204A1288D2
:1006A00000281DD0880736D448071BD408071BD460
:1006B000C8061BD488061BD448061BD408061BD4C6
:1006C000C8051BD488051BD448051BD408051BD4BA
:1006D000C8041BD488041BD448041BD50E231AE07D
:1006E000002318E0022316E0032314E0042312E0A1
:1006F000052310E006230EE007230CE008230AE0A0
:10070000092308E00A2306E00B2304E00C2302E09F
:100710000D2300E00F231140D940C8B27047C046F6
:100720001014005070B50C460A3801218140054D67
:100730002E888E4388B2FFF79BFF844034432C8081
:1007400070BDC0461014005070B50A38012421460F
:100750008140054D2E888E4388B2FFF789FF844083
:1007600034432C8070BDC0460E140050C0B2024607
:100770000A3A042A04D88000024A80182838016006
:100780007047C0461480FC0710B504460A38C0B252
:1007900004280FD82046FFF7D7FFA00006494018CD
:1007A00028380068002801D0804710BD0120A040F3
:1007B0000249086010BDC0461480FC0780E200E0DA
:1007C00080B50A20FFF7E0FF80BD80B50B20FFF762
:1007D000DBFF80BD80B50C20FFF7D6FF80BD80B564
:1007E0000D20FFF7D1FF80BD80B50E20FFF7CCFFB5
:1007F00080BDC04610B57F241C40094B5C8000249E
:10080000022A01D3224603E0D2018A18521CD2B236
:100810000C2900D32246002800D022461A8010BDA1
:100820004000005001480021018070474000005006
:100830007F210140014801807047C04642000050BE
:10084000024801887F2008407047C046420000509F
:1008500080B5024800F004F880BDC046001000508A
:10086000F8B504463248201A411E884140013149FA
:100870000D182E46103627467C373EE0A888E988BA
:1008800081422ED2884238D02289C0231340C02B07
:1008900003D13A88920703D42FE0A28A92062CD57E
:1008A0004A1CEA802B68595C21801146EAE73268CD
:1008B000002A22D0012105E03268002A1DD0A08A3A
:1008C0009E2101402046904717E0204600F0FAF9AB
:1008D000A08801218843A080A96900290DD0E8895A
:1008E0000AE0A18802229143A180A188802291433D
:1008F000A1806969002900D0884720890F21014023
:10090000481E0B28F9D8C046784400794000874437
:100910000E0D0C080C07060C0C0C0C05D5E7C6E7F1
:10092000CAE7204600F0CEF9E7E7E6E7A6E7F8BD1C
:10093000001000502880FC0780B50248FFF790FFA8
:1009400080BDC0460011005010B5EFF310820121A8
:1009500081F31088094B984201D0402000E08020AC
:10096000074B1C8804431C80002A02D081F31088A6
:1009700010BD002080F3108810BDC046001000504C
:100980000400005010B5882201218152EFF310823B
:1009900081F310888023DB43084CA04200D0403311
:1009A000074804881C400480002A02D081F3108884
:1009B00010BD002080F3108810BDC046001000500C
:1009C0000400005010B5828980231A438281CAB284
:1009D000C02402538AB2120A0280090CC9B2818073
:1009E00081899943818110BD044A801A421E904139
:1009F0004001034A101841617047C0460010005082
:100A00002880FC07044A801A421E90414001034A94
:100A1000101881617047C046001000502880FC0704
:100A2000044A801A421E90414001034A1018016195
:100A30007047C046001000502880FC07FEB50C46E9
:100A40000546FFF781FF7C20285A2088A1780904F9
:100A500041182846FFF7B6FFE0781F210140C00883
:100A6000042202400A43AA8128467C30E178C90961
:100A70008183032166561D4B18461038002E21D560
:100A80002A469C32854216D17608202702973E409E
:100A900001961F88029EB743019EBE191E80E6780C
:100AA0007609022702973E4001961F88029EB743AF
:100AB000019EBE191E8023791B079B0F138023798B
:100AC0000B409380281A411E8841400108490818AC
:100AD000A1680177E1680161216941616169816112
:100AE00021790907890F4177FEBDC04610100050DB
:100AF0002880FC07828A9206FCD50180704770B579
:100B000014460D460646200406D029783046FFF7E5
:100B1000F1FF641E6D1CF6E770BDC04670B5174D41
:100B2000441B661EB4416401154E3419A280002690
:100B3000E680012B04D0002B1ED1FFF7E0FF70BD33
:100B400021600221A84201D10A4600E003220125CA
:100B500095400C4B1D60BFF34F8FBFF36F8F8388A1
:100B60000B438380818880230B438380217F104641
:100B700000F00CF80448056070BDC046001000503D
:100B80002880FC0780E100E000E100E08007C00E63
:100B90008907090E8140FF2282400348036893437E
:100BA0000B4303607047C04600E400E0818A4906B9
:100BB000FCD57047818AC907FCD00088C0B2704755
:100BC00070B514460D460646200406D03046FFF7A1
:100BD000F1FF2870641E6D1CF6E770BD70B5174DEF
:100BE000441B661EB4416401154E34190026E6818B
:100BF000A281A160012B04D0002B1DD1FFF7E0FFE3
:100C000070BDA84201D1022200E0032201210D465D
:100C100095400C4B1D60BFF34F8FBFF36F8F8388E0
:100C20000B438380818804230B438380217F1046FC
:100C3000FFF7ACFF0448056070BDC04600100050CF
:100C40002880FC0780E100E000E100E007490A4657
:100C5000103A904200D070470888202202430A8050
:100C60000888022202430A807047C04610100050D4
:100C700010B50446481CA18A490602D5A18A8906F6
:100C800002D4401EF7D118E00D48014610398C42BD
:100C900007D10188202291430180018802229143DB
:100CA0000180FF200A3000F079FBA08AC00701D143
:100CB000012010BD2046FFF7C9FF002010BDC0462F
:100CC0001010005070B50F49411A4A1E9141490158
:100CD0000D4A52189389D189994209D2848AE4072E
:100CE0000FD004884D1CD581966874542946F3E7CB
:100CF00083880124A34383809269002A01D088B2AB
:100D0000904770BD001000502880FC070148007813
:100D10007047C0466880FC07014800210170704799
:100D20006880FC0770B5EFF31085012484F3108808
:100D300005200607708DC00509D511480470FFF71E
:100D40002DFB1049087010480088204048703088FA
:100D50008021014331800D480168072291430160E1
:100D600041684907FCD50A4901610A494161002DE2
:100D700002D084F3108870BD002080F3108870BD0D
:100D80006880FC07D880FC07800000500000F40752
:100D90000F009909090404A4800003A1085806491A
:100DA00008600648486070470100990903009909E6
:100DB000070099090F0099091000F407090404A419
:100DC0007CB504460E4D28680726304001A90870FE
:100DD0000878844212D00B480088C00507D5A01EB1
:100DE000C0B2042803D808A1085C00F011F82868F4
:100DF000B0432043286068684007FCD57CBDC046EE
:100E00000000F4072A0000500B130B0B0B0000002E
:100E100010B50446FFF7C2FA844202D92046FFF714
:100E2000C9FA06480188C90707D1018801220A4387
:100E30000280034801884907FCD510BD800000509E
:100E40002A00005070B50D4604460320FFF7B8FF96
:100E50000C48846045600168C907FCD00420FFF796
:100E6000AFFFFF20C604AD00A859844207D105207A
:100E7000FFF7A6FFA859211A4842484170BD00203B
:100E800070BDC0460400F40710B504460220FFF709
:100E900097FFFF20C004A100085810BD70B514468C
:100EA0000D4606460320FFF78BFF00210848A142AC
:100EB00009D032688260456002689207FCD5491CFF
:100EC0006D1C361DF3E70168C907FCD070BDC04634
:100ED0000400F407F8B514460D460746FFF7DEFF99
:100EE000042338462946224600F011F8002600283F
:100EF0000BD0052338462946224600F008F8002882
:100F000003D00320FFF75CFF01263046F8BD70B523
:100F100014460E4605461846FFF752FFFF20C00450
:100F2000B10009180020844207D00A682B68934258
:100F300003D1091D401C2D1DF5E7A04201D2002060
:100F400070BD012070BD70B514460E4605460220E6
:100F5000FFF736FFFF20C004B1000818002C03D0B3
:100F600002C802C5641EF9E770BDC04670B5EFF354
:100F70001085012484F31088052000070288802151
:100F80000A430280144A13680726B3431360536868
:100F90005B07FCD5114B1361114B536102888A43E7
:100FA0000280408DC0050DD50E48002101700E4E07
:100FB0003078FFF7FFF97078002803D10B480188DB
:100FC000A1430180002D02D084F3108870BD002061
:100FD00080F3108870BDC0460000F4070F00990927
:100FE000090404A46880FC07D880FC078000005036
:100FF000F0B589B068208F49002403900C5201207D
:101000000490C046C0468C48001F00688B49884247
:1010100000D0D5E002940F2007070420864C0597E6
:1010200006462118081F2246EC32904200D3C9E040
:1010300000680890089B3B4009200507089AAB42CE
:101040001FD1089B1F0AFDB2D2B2921F112A00D9EC
:1010500099E0C0467A44127952009744084D94941E
:101060009494949494949465778A4A945C60714CB7
:101070000398205CC0002018AA0000F09FF9039993
:1010800045E0900F0FD008986F4988420BD8304642
:1010900008306C4B19462631089A8A4221D13159C1
:1010A0006B4A5180BCE708983840072109078842FD
:1010B00003D10020C046C04611E00898384004998A
:1010C000C90788420BD00898384005214907884253
:1010D00005D00898384003214907884261D1301D66
:1010E0009EE70899994253D131596622514B995242
:1010F00096E73059622114E04E4C69200190205C43
:10110000C00020181030AA0000F058F90199605C66
:10111000C019605436E030594649086533E030590B
:101120006421444A50522EE0315948433259120C3E
:10113000801A00B2C00856233E4CE052501A810873
:101140003F4A11400818401C542110E031594843CF
:101150003259120C801A00B2C0085A23354CE052A2
:10116000501A8108364A11400818401C5821605214
:1011700008E0029CA00006AA1018AA0000F01EF9C0
:101180002C1902942C4CA8003018001D059F47E72D
:1011900019462231089A8A4208D131592C4A918045
:1011A0003EE70898401C30460CD039E719461E31FE
:1011B000089A8A4200D033E73159254AD1802FE777
:1011C000FF2034E05C2006991A4C21520399605CA0
:1011D000400860546920215C49082154092007997E
:1011E00048430A0C801A00B2C0086023E052501A2B
:1011F0008108134A11400818401C5E216052642087
:10120000215A002903D17D21C9000A4A11526621C1
:101210000848425A0020002A09D10C4A1268D2B26A
:10122000AA2A01D06E2200E08022024B5A5240B21C
:1012300009B0F0BD6C80FC07D47EF807A5A5A5A574
:10124000FF3F0000020000504C420050D07FF807E2
:101250000480FC07F8B56824134D295D0026134F60
:101260008E4220D22A68BA4218D16868C001400C68
:101270003A4613D0C046C0460B49095D2A680A2881
:101280000CD3032000026B6818401B049B0E181837
:101290001060E888064A1040064A00E0686810605E
:1012A0000835761CDCE7F8BD6C80FC074C1000406C
:1012B000FF010000DC80FC07F8B569240F4E315DAA
:1012C000103600270E4D8F4216D23268AA420ED138
:1012D000C046C0460949095D32680A2807D37368C9
:1012E00008480340084800684004184300E070685C
:1012F000106008367F1CE6E7F8BDC0466C80FC072E
:1013000038300040FFFF01FCDC80FC0704A000F047
:101310007FF8FEF751FF08A000F07AF8FEE7C0461C
:10132000796F75277665206D616465206974206822
:101330006572652023312100796F75277665206DF0
:10134000616465206974206865726520233221001C
:101350007CB51B20FFF770F80D480E49FFF76EFBB8
:101360000024009403252E02062104232046324641
:10137000FFF7CCF800942046294632462346FFF773
:10138000C5F80548018801220A4302807CBDC04699
:1013900000110050FC14FC070C03005000280CD076
:1013A00000BF00BF00BF00BF00BF00BF00BF00BF45
:1013B00000BF00BF00BF401EF0D1704703460B4383
:1013C0009B0703D009E008C9121F08C0042AFAD2FB
:1013D00003E00B780370401C491C521EF9D2704781
:1013E0001CB5094800900948019005460126009C5B
:1013F00005E0E36807CC33430C3C98471034AC421B
:10140000F7D3FEF751FE00001415FC073415FC0756
:1014100010B5024A024900F014F810BD6114FC072F
:101420000080FC0702E008C8121F08C1002AFAD198
:1014300070477047002001E001C1121F002AFBD154
:101440007047F8B516460F460446002503E03946B6
:10145000B047641C6D1C20780028F8D12846F8BDE0
:1014600038B504466846047069460320ABBE204682
:1014700038BD00001C4988880722904388800520D9
:1014800000078A89D20710D0098800290DD1174991
:101490004A8802858A888284CA880284428A144BD8
:1014A00013400988C90119434182124906220A8062
:1014B0000121CA03104B1A60BFF34F8FBFF36F8F28
:1014C00002221A60BFF34F8FBFF36F8F1960BFF313
:1014D0004F8FBFF36F8F41890422914341810021D7
:1014E000018062B67047C046040300500480FC07C8
:1014F0007FFE00000034005080E100E00B08008314
:1015000000000000020000000000000000000000D9
:10151000000000003815FC070080FC0710000000E8
:101520002414FC074815FC071080FC07D0070000B6
:101530003414FC0700000000000000000000000060
:081540008E070E000000000000
:0400000507FC00A153
:00000001FF
